:100000000C9461000C947E000C947E000C947E0095
:100010000C9403050C947E000C947E000C947E00DE
:100020000C947E000C947E000C9402030C947E00D1
:100030000C947E000C947E000C947E000C947E0048
:100040000C94B8020C947E000C947E000C947E00FC
:100050000C947E000C947E000C947E000C947E0028
:100060000C947E000C947E0008000000BE9224498F
:10007000123EABAAAA2ABECDCCCC4C3E00000080DA
:10008000BEABAAAAAA3E00000000BF000000803F4D
:100090000000000000084178D3BB4387D1133D190D
:1000A0000E3CC3BD4282AD2B3E68EC8276BED98F3A
:1000B000E1A93E4C80EFFFBE01C4FF7F3F0000007E
:1000C000000011241FBECFEFD8E0DEBFCDBF11E08E
:1000D000A0E0B1E0E0ECF1E102C005900D92A634A1
:1000E000B107D9F721E0A6E4B1E001C01D92AF3518
:1000F000B207E1F70E946B050C94DE080C94000037
:100100002091150190E4299F900111248E50822B9B
:1001100080937C0080917A00806480937A00809143
:100120007A0086FDFCCF8091780090917900089547
:100130003FB7F89480915A0190915B01A0915C01C6
:10014000B0915D0126B5A89B05C02F3F19F001961F
:10015000A11DB11D3FBFBA2FA92F982F8827BC0121
:10016000CD01620F711D811D911D43E0660F771F48
:10017000881F991F4A95D1F708958F929F92AF9249
:10018000BF92CF92DF92EF92FF924B015C010E94EF
:1001900098006B017C010E9498006C197D098E0902
:1001A0009F09683E734081059105A8F321E0821AFA
:1001B0009108A108B10888EEC80E83E0D81EE11CA2
:1001C000F11C81149104A104B10429F7FF90EF9070
:1001D000DF90CF90BF90AF909F908F900895CF9277
:1001E000DF92EF92FF92EBE4F1E020915E0130E0CC
:1001F000318320832FB7F894C0905601D0905701D7
:10020000E0905801F09059012FBFC282D382E4825E
:10021000F582668377838087918785E080935E018E
:10022000FF90EF90DF90CF9008952FB7F8948091D2
:10023000560190915701A0915801B09159012FBFDB
:1002400040914D0150914E0160914F0170915001CC
:10025000841B950BA60BB70B409151015091520195
:10026000609153017091540184179507A607B70751
:10027000C0F080914B0190914C01059731F484E0DE
:1002800090E090934C0180934B0180914B018093BF
:100290005E0110925101109252011092530110927E
:1002A000540108958091480181110AC0299A82E081
:1002B0008093480168EE73E080E090E00C94EF00DA
:1002C000823019F4289883E0F3CF833049F42998D9
:1002D00081E08093480160E97FE581E090E0EECF26
:1002E000813029F42A9810925E01109248010895F5
:1002F000809126012091120130911301082E000CEB
:10030000990B8217930724F083E080935E01089590
:100310003599FACF60911E0170911F0180912001E3
:100320009091210120E030E04EEB52E40E946E06F5
:1003300018161CF481E080935E0180911801909161
:100340001901059730F484E080935E0182E0809388
:1003500049010895CF93C0914701C1110BC0299A5B
:1003600081E08093470168EB7BE080E090E0CF91F3
:100370000C94EF00C13059F485B1856085B982E0F5
:100380008093470160EA7FE080E090E0F0CFC230E8
:1003900021F5299860911A0170911B0180911C012F
:1003A00090911D0120E030E04EEB52E40E946E0679
:1003B0001816F4F48091460191E0980F909346014D
:1003C000823068F485B18A7F85B964EF71E080E09E
:1003D00090E00E94EF0010924701CF91089584E0D1
:1003E00080935E0181E08093490110924601F3CF32
:1003F000C0935E01FACF8091180190911901059781
:1004000038F0809126018D331CF4359B08C0089587
:1004100084E080935E0182E0809349010895809199
:1004200026012091120130911301082E000C990B26
:10043000821793071CF481E080935E0185B185707B
:1004400069F385B18A7F85B984E080935E01E4CF4A
:10045000CF93DF93E82FA62FB0E0ED01C95DDE4F0B
:100460008883AA0FBB1F9D01285D3E4FA95DBE4F2B
:10047000E7FD22C04AE08E2F642F0E94C408592F46
:10048000642F0E94C408892F990F990B815D9E4F9C
:10049000EC018881E9018A83C52F550FDD0BC15D11
:1004A000DE4F888190E8E4360CF490E0892B1296B8
:1004B0008C93DF91CF91089580E4E9018A83E73F2F
:1004C0000CF4E7EFFF27E1950CF4F095E15DFE4FAA
:1004D0008081EDCFCF93DF931092100180914A017C
:1004E00081111CC085B18C7F85B960E97FE581E011
:1004F00090E00E94EF0083E780932C01E091490196
:10050000F0E0E15DFE4F808180932B0180914A01F4
:100510008F5F80934A01DF91CF9108958130D9F7A1
:100520002A98D3E7C0914901C13091F4359B10C09E
:10053000C093100110925E018091120190911301FD
:1005400061E00E9428021092490110924A01E3CF13
:100550006AE070E080E090E00E94BD00D0932C0142
:10056000EC2FF0E0E15DFE4F808180932B01DACF2C
:100570001F920F920FB60F9211242F933F938F93D8
:100580009F93AF93BF938091560190915701A09193
:100590005801B09159013091550126E0230F2D37B4
:1005A00058F50296A11DB11D209355018093560167
:1005B00090935701A0935801B093590180915A012B
:1005C00090915B01A0915C01B0915D010196A11D2C
:1005D000B11D80935A0190935B01A0935C01B0938D
:1005E0005D01BF91AF919F918F913F912F910F909E
:1005F0000FBE0F901F90189529E8230F0396A11D99
:10060000B11DD2CF1F920F920FB60F9211248F926D
:100610009F92AF92BF92CF92DF92EF92FF922F9371
:100620003F934F935F936F937F938F939F93AF937A
:10063000BF93EF93FF9380912D018F5F80932D01E6
:10064000843010F010922D0190912E0185B19923E4
:1006500009F490C1886385B990912E0188B19923DE
:1006600009F48AC1816088B980912E01E0912D0141
:10067000F0E0E95DFE4F882309F480C18281809516
:100680008BB980912D01813009F484C108F478C1BF
:10069000823009F488C1833009F48FC1809126012A
:1006A00060E00E94280280915E01843049F0359913
:1006B0008DC1809112019091130161E00E94280286
:1006C00081E10E948000909317018093160182E1DE
:1006D0000E94800090931901809318016091160187
:1006E00070911701C0901A01D0901B01E0901C017D
:1006F000F0901D0190E080E00E941B07A701960189
:100700000E946E0680901A0190901B01A0901C011F
:10071000B0901D01609116017091170190E087FF64
:100720005BC180E00E941B072AE037ED43E25CE3F7
:100730000E9422086B017C0124EA30E74DE75FE369
:10074000C501B4010E9422089B01AC01C701B6019A
:100750000E94020660931A0170931B0180931C0192
:1007600090931D01809124018F5F8093240188372D
:10077000B0F11092240180901E0190901F01A09072
:100780002001B0902101609122017091230190E03D
:1007900080E00E941B072AE939E949E15FE30E94F2
:1007A00022086B017C012DEC3CEC4CEC5EE3C501B6
:1007B000B4010E9422089B01AC01C701B6010E944E
:1007C000020660931E0170931F0180932001909395
:1007D00021018FEF9FEF90932301809322012091BD
:1007E0001601309117018091220190912301281761
:1007F000390740F4809116019091170190932301DD
:1008000080932201609118017091190190E080E0BD
:100810000E941B0720E030EC4FE754E40E9473066F
:1008200020E030E040EA50E40E9422086B017C01A5
:10083000AC019B0160E070E080EA90E40E94010658
:10084000A70196010E94730620E030E44CE156E4D3
:100850000E94220820E030E040E05FE30E940206B0
:100860000E94EC060E941B0720E030E44CE156E4B5
:100870000E9473060E94DA0720E030E443E855E462
:100880000E9473062FE03FEC4BE55BE30E940206FB
:100890009B01AC0160E070E080E89FE30E9473067A
:1008A00023E333E948E853E40E9401066B017C012D
:1008B00020E030E046EC52E40E94CD0718160CF41C
:1008C0009BC020E030E040E151ECC701B6010E943E
:1008D0006E0687FF06C0C12CD12C98E1E92E91EC61
:1008E000F92EC701B6010E94E506609325016091CB
:1008F0002601F0902501062E000C770B880B990B32
:100900000E941D0720E030E040E25FE30E942208E1
:100910004B015C016F2DFF0C770B880B990B0E942C
:100920001D0720E030E040EC5EE30E9422089B01BE
:10093000AC01C501B4010E9402060E94E506609365
:100940002601FF91EF91BF91AF919F918F917F9180
:100950006F915F914F913F912F91FF90EF90DF90BA
:10096000CF90BF90AF909F908F900F900FBE0F9041
:100970001F901895877C6FCE8E7F75CE828180CE3A
:1009800090912E0185B1911103C0886085B986CE02
:10099000877FFCCF90912E0185B1911102C08061BB
:1009A000F5CF8F7EF3CF90912E0188B1911103C0C6
:1009B000816088B973CE8E7FFCCF90912E0185B176
:1009C000911102C08062E2CF8F7DE0CF80E48093FE
:1009D0002B0180932C0174CE80E00E941B072AE03B
:1009E00037ED43EA5BE30E9422086B017C0122E5BC
:1009F00038EB4EE75FE3A4CEC12CD12C87ECE82E78
:100A000082E4F82E6ECF1F920F920FB60F92112430
:100A10002F933F934F935F938F939F93EF93FF9306
:100A2000319B2EC090E086B182FB882780F921E0BF
:100A30008227892BE091140194E0E99FF0011124B1
:100A4000E82BE050FF4F208190911101920F90937D
:100A50001101909111011916ACF49091110194308B
:100A6000ACF480931401FF91EF919F918F915F916E
:100A70004F913F912F910F900FBE0F901F9018959F
:100A800092E0D1CF909111019D3F5CF790911001C0
:100A9000992339F33599E5CF409112015091130113
:100AA000909111012FEF19160CF421E0240F1092F0
:100AB000110123333CF022E330E030931301209303
:100AC0001201CFCF2B3F1CF42BEF3FEFF6CF022EBE
:100AD000000C330BF2CF789484B5826084BD84B56A
:100AE000816084BD85B5826085BD85B5816085BD29
:100AF00080916E00816080936E00109281008091E1
:100B00008100826080938100809181008160809368
:100B10008100809180008160809380008091B1008D
:100B200084608093B1008091B00081608093B000B8
:100B300080917A00846080937A0080917A0082604C
:100B400080937A0080917A008E7F80937A008091E2
:100B50007A00806880937A001092C1008AB18FEF8A
:100B60008AB986B1817080932E01389A84B18863E6
:100B700084B984B1876084B988B1866088B980916E
:100B8000680082608093680080916C00866080932A
:100B90006C00109280008AE18093810080916F0048
:100BA000816280936F0080EA9FE09093870080933A
:100BB000860078941092150162E370E080E090E086
:100BC0000E94BD0082E10E948000909319018093F1
:100BD000180162E370E080E090E00E94BD00C0E098
:100BE000D0E0E0915E01F0E0EE0FFF1FE75CFE4F0A
:100BF0000190F081E02D0995209799F30E94000063
:100C0000F0CF5058BB27AA270E9419060C949307CF
:100C10000E94850738F00E948C0720F039F49F3F2E
:100C200019F426F40C9482070EF4E095E7FB0C947B
:100C30007C07E92F0E94A40758F3BA1762077307CD
:100C40008407950720F079F4A6F50C94C6070EF4F6
:100C5000E0950B2EBA2FA02D0B01B90190010C01CC
:100C6000CA01A0011124FF27591B99F0593F50F4E4
:100C7000503E68F11A16F040A22F232F342F44273C
:100C8000585FF3CF469537952795A795F040539534
:100C9000C9F77EF41F16BA0B620B730B840BBAF004
:100CA0009150A1F0FF0FBB1F661F771F881FC2F76F
:100CB0000EC0BA0F621F731F841F48F48795779583
:100CC0006795B795F7959E3F08F0B0CF9395880F3D
:100CD00008F09927EE0F9795879508950E94580779
:100CE00008F481E008950E9487060C9493070E94FF
:100CF0008C0758F00E94850740F029F45F3F29F0E7
:100D00000C947C0751110C94C7070C9482070E9425
:100D1000A40768F39923B1F3552391F3951B550B61
:100D2000BB27AA2762177307840738F09F5F5F4FBE
:100D3000220F331F441FAA1FA9F335D00E2E3AF0FD
:100D4000E0E832D091505040E695001CCAF72BD015
:100D5000FE2F29D0660F771F881FBB1F2617370766
:100D60004807AB07B0E809F0BB0B802DBF01FF2798
:100D700093585F4F3AF09E3F510578F00C947C07F2
:100D80000C94C7075F3FE4F3983ED4F386957795BC
:100D90006795B795F7959F5FC9F7880F911D969551
:100DA000879597F90895E1E0660F771F881FBB1FAD
:100DB000621773078407BA0720F0621B730B840B5A
:100DC000BA0BEE1F88F7E09508950E94EC06689430
:100DD000B1110C94C70708950E94AC0788F09F5783
:100DE00098F0B92F9927B751B0F0E1F0660F771F4F
:100DF000881F991F1AF0BA95C9F714C0B13091F045
:100E00000E94C607B1E008950C94C607672F782F9B
:100E10008827B85F39F0B93FCCF386957795679509
:100E2000B395D9F73EF490958095709561957F4F75
:100E30008F4F9F4F0895E89409C097FB3EF490951B
:100E40008095709561957F4F8F4F9F4F9923A9F0A3
:100E5000F92F96E9BB279395F69587957795679532
:100E6000B795F111F8CFFAF4BB0F11F460FF1BC076
:100E70006F5F7F4F8F4F9F4F16C0882311F096E909
:100E800011C0772321F09EE8872F762F05C06623B7
:100E900071F096E8862F70E060E02AF09A95660F70
:100EA000771F881FDAF7880F9695879597F9089529
:100EB000990F0008550FAA0BE0E8FEEF161617066B
:100EC000E807F907C0F012161306E407F50798F0D3
:100ED000621B730B840B950B39F40A2661F0232BEC
:100EE000242B252B21F408950A2609F4A140A69568
:100EF0008FEF811D811D089597F99F6780E870E04D
:100F000060E008959FEF80EC089500240A9416167F
:100F1000170618060906089500240A9412161306E7
:100F2000140605060895092E0394000C11F4882375
:100F300052F0BB0F40F4BF2B11F460FF04C06F5F91
:100F40007F4F8F4F9F4F089557FD9058440F551F67
:100F500059F05F3F71F04795880F97FB991F61F03B
:100F60009F3F79F087950895121613061406551FB2
:100F7000F2CF4695F1DF08C0161617061806991F1E
:100F8000F1CF86957105610508940895E894BB2713
:100F900066277727CB0197F908950E94580708F430
:100FA0008FEF089516F00C948F080C9482076894C4
:100FB0000C947C070E94AC07A8F39923C1F3AEF30D
:100FC000DF93CF931F930F93FF92C92FDD278823C1
:100FD0002AF02197660F771F881FDAF720E030E0AC
:100FE00040E85FEB9FE3883920F0803E38F021969F
:100FF0008F770E940206E8E6F0E004C00E94020635
:10100000E5E9F0E00E949D088B01BE01EC01FB2E9A
:101010006F5771097595771F880B990B0E941D07F3
:1010200028E132E741E35FE30E943508AF2D9801E4
:10103000AE01FF900F911F91CF91DF910E94190691
:101040000C9493070E9435080C9493070E9485071F
:1010500038F00E948C0720F0952311F00C947C0747
:101060000C94820711240C94C7070E94A40770F304
:10107000959FC1F3950F50E0551F629FF001729F3D
:10108000BB27F00DB11D639FAA27F00DB11DAA1F4C
:10109000649F6627B00DA11D661F829F2227B00D99
:1010A000A11D621F739FB00DA11D621F839FA00D24
:1010B000611D221F749F3327A00D611D231F849F74
:1010C000600D211D822F762F6A2F11249F575040CB
:1010D0009AF0F1F088234AF0EE0FFF1FBB1F661F46
:1010E000771F881F91505040A9F79E3F510580F00F
:1010F0000C947C070C94C7075F3FE4F3983ED4F34D
:10110000869577956795B795F795E7959F5FC1F7B2
:10111000FE2B880F911D9695879597F908959F3F0F
:1011200031F0915020F4879577956795B795880FA2
:10113000911D9695879597F90895DF93CF931F9307
:101140000F93FF92EF92DF927B018C01689406C0AF
:10115000DA2EEF010E943508FE01E894A591259151
:10116000359145915591A6F3EF010E941906FE01B4
:101170009701A801DA9469F7DF90EF90FF900F9143
:101180001F91CF91DF91089587FB082E062687FDDA
:10119000819567FD61950E94D2080EF4919507FC38
:1011A00081950895991B79E004C0991F961708F05E
:1011B000961B881F7A95C9F780950895F894FFCFFC
:1011C0000001FF00FF000001010000FF00FF01001F
:1011D000010014000001F401F4010000FA430000D2
:1011E000FA43F40100141400004040404000003F66
:1011F0000C5B5D6C75771C7F7DFB01AA0178015249
:06120000016A0215010065
:00000001FF
